:100000000C9464000C948C000C948C000C948C0068
:100010000C948C000C948C000C948C000C948C0030
:100020000C948C000C948C000C948C000C948C0020
:100030000C948C000C940C0A0C948C000C948C0086
:100040000C94E5020C948C000C948C000C948C00A5
:100050000C948C000C948C000C948C000C948C00F0
:100060000C946C0C0C948C00000000002400270001
:100070002A0000000000250028002B0000000000DE
:1000800023002600290004040404040404040202DA
:100090000202020203030303030301020408102007
:1000A0004080010204081020010204081020000012
:1000B0000007000201000003040600000000000029
:1000C000000091007409080B11241FBECFEFD8E087
:1000D000DEBFCDBF11E0A0E0B1E0E6E0F1E202C09A
:1000E00005900D92AA36B107D9F712E0AAE6B1E061
:1000F00001C01D92A63FB107E1F710E0C8ECD0E0C7
:1001000004C02297FE010E947D10C23CD107C9F7AE
:100110000E94DF060C948E000C940000F8940C945E
:100120008110CF92EF920F9383EF91E06CE04BE060
:1001300025E004E053E0E52E32E0C32E0E94A5083E
:1001400088E092E060912F0122E330E040E050E04F
:100150000E94ED0987E192E060912D0122E330E0F9
:1001600040E050E00E94ED090F91EF90CF9008958C
:100170000F931F93CF93DF9383EF91E060E040E014
:100180000E94B80783EF91E060E071E00E94F505FE
:1001900040913301509134016091350170913601E5
:1001A00083EF91E022E030E00E94DC0683EF91E0F3
:1001B00060E041E00E94B80783EF91E063E071E006
:1001C0000E94F50540916C0150916D0160916E01A6
:1001D00070916F0183EF91E022E030E00E94DC0635
:1001E00083EF91E06BE040E00E94B8078091EC0162
:1001F000C82FD0E08091EB01082F10E0CA30D10564
:100200002CF483EF91E060E30E940B0583EF91E013
:10021000BE014AE050E00E94E20580914801882337
:1002200039F01092480183EF91E066E071E007C079
:1002300081E08093480183EF91E068E071E00E94E3
:10024000F5050A3011052CF483EF91E060E30E947C
:100250000B0583EF91E0B8014AE050E00E94E2050F
:1002600083EF91E068E040E00E94B807E091ED0183
:10027000F0E0EE0FFF1FE75CFE4F6081718183EFBE
:1002800091E00E94F505DF91CF911F910F910895A4
:100290008AEE91E00E94DE08089588E092E00E94D4
:1002A000B50988E092E00E9479098823C1F0609145
:1002B000330170913401809135019091360120E035
:1002C00030E040E05FE30E941C0E609333017093C6
:1002D000340180933501909336010E94B80087E184
:1002E00092E00E94B50987E192E00E947909882393
:1002F000C1F060913301709134018091350190918A
:10030000360120E030E040E05FE30E941B0E609386
:1003100033017093340180933501909336010E942C
:10032000B80080914701813021F4109247010E946A
:100330004801089580916A010E94D903AA2797FD78
:10034000A095BA2FBC01CD010E941F0F20E030E420
:100350004CE955E40E94D30F20E030EC4FE754E421
:100360000E94840E20E030E048EC53E40E941B0E13
:1003700020E030E04CE951E40E94840E08950F9390
:100380001F93CF93DF9383EF91E060E142E020E0A1
:100390000E94EF0780912F0160E00E94FB03809193
:1003A0002D0160E00E94FB0380916A0160E00E94E1
:1003B000FB038091310161E00E94FB0380913101D8
:1003C00061E00E943A0464EF71E080E090E00E94F6
:1003D0003B038091310160E00E943A0402E711E0A2
:1003E000C0E0D0E009C00E949A01F80161937193C6
:1003F000819391938F0121968091370190913801DB
:10040000C817D90784F30E94480180E392E040E4D2
:1004100052E46FE070E00E94A70A80E392E062E895
:1004200072E02FEF3FEF4FEF5FEF0E94AF0ADF91D7
:10043000CF911F910F910895AF92BF92CF92DF920B
:10044000EF92FF920F931F93CF93DF930E949A0135
:100450002091700130917101F901EE0FFF1FEE0F35
:10046000FF1FEE58FE4F60837183828393832F5F5B
:100470003F4F3093710120937001C0903701D090AD
:1004800038012C153D0589F072E7A72E71E0B72ED3
:100490000F2EF0E0EF2EF0E0FF2EF0E00F2FF0E057
:1004A0001F2FF02DC0E0D0E012C010927101109209
:1004B0007001EACFC801B701F50121913191419155
:1004C00051915F010E941C0E7B018C012196CC157D
:1004D000DD0584F3B601882777FD8095982F0E946B
:1004E0001F0F9B01AC01C801B7010E94840EDF9170
:1004F000CF911F910F91FF90EF90DF90CF90BF9021
:10050000AF9008950E941C0260936C0170936D017E
:1005100080936E0190936F010E94B8008091F10169
:100520009091F201019731F560913301709134019E
:10053000809135019091360120E030E040E05FE3AA
:100540000E941C0E9B01AC0160916C0170916D01C9
:1005500080916E0190916F010E94CF0F18168CF55B
:100560008091310160E00E943A041092F2011092F1
:10057000F10127C060913301709134018091350100
:100580009091360120E030E040E05FE30E941B0ED6
:100590009B01AC0160916C0170916D0180916E01C5
:1005A00090916F010E94800E88235CF4809131014C
:1005B00061E00E943A0481E090E09093F201809320
:1005C000F10181E08093470108951F920F920FB6C9
:1005D0000F9211242F933F938F939F93AF93BF93C9
:1005E00080912A0290912B02A0912C02B0912D02B1
:1005F00030912E020196A11DB11D232F2D5F2D37A5
:1006000020F02D570196A11DB11D20932E0280933D
:100610002A0290932B02A0932C02B0932D0280917A
:10062000260290912702A0912802B09129020196FA
:10063000A11DB11D8093260290932702A09328024A
:10064000B0932902BF91AF919F918F913F912F91CC
:100650000F900FBE0F901F9018958FB7F8942091B0
:100660002A0230912B0240912C0250912D028FBF13
:10067000B901CA0108959B01AC017FB7F89480913C
:10068000260290912702A0912802B091290266B516
:10069000A89B05C06F3F19F00196A11DB11D7FBF3A
:1006A000BA2FA92F982F8827860F911DA11DB11D44
:1006B00062E0880F991FAA1FBB1F6A95D1F7BC0182
:1006C0002DC0FFB7F8948091260290912702A09147
:1006D0002802B0912902E6B5A89B05C0EF3F19F0AA
:1006E0000196A11DB11DFFBFBA2FA92F982F8827F2
:1006F0008E0F911DA11DB11DE2E0880F991FAA1F49
:10070000BB1FEA95D1F7861B970B885E9340C8F212
:10071000215030404040504068517C4F21153105F8
:100720004105510571F60895019739F0880F991F19
:10073000880F991F02970197F1F70895789484B56F
:10074000826084BD84B5816084BD85B5826085BDCD
:1007500085B5816085BDEEE6F0E0808181608083B3
:10076000E1E8F0E010828081826080838081816096
:100770008083E0E8F0E0808181608083E1EBF0E05D
:10078000808184608083E0EBF0E080818160808301
:10079000EAE7F0E0808184608083808182608083EA
:1007A0008081816080838081806880831092C10015
:1007B0000895982F8E3008F09E50977080914901CF
:1007C0008295880F880F807C892B80937C00809194
:1007D0007A00806480937A0080917A0086FDFCCF55
:1007E0002091780040917900942F80E030E0282B10
:1007F000392BC9010895CF93DF93482F50E0CA01E8
:1008000086569F4FFC0134914A575F4FFA018491FD
:10081000882369F190E0880F991FFC01E859FF4F88
:10082000A591B491FC01EE58FF4FC591D491662378
:1008300051F42FB7F8948C91932F909589238C9332
:10084000888189230BC0623061F42FB7F8948C91B2
:10085000932F909589238C938881832B88832FBF36
:1008600006C09FB7F8948C91832B8C939FBFDF9128
:10087000CF910895482F50E0CA0182559F4FFC0147
:100880002491CA0186569F4FFC0194914A575F4FAD
:10089000FA013491332309F440C0222351F123306B
:1008A00071F0243028F42130A1F0223011F514C069
:1008B0002630B1F02730C1F02430D9F404C0809143
:1008C00080008F7703C0809180008F7D80938000AF
:1008D00010C084B58F7702C084B58F7D84BD09C0F8
:1008E0008091B0008F7703C08091B0008F7D80939E
:1008F000B000E32FF0E0EE0FFF1FEE58FF4FA59181
:10090000B4912FB7F894662321F48C9190958923A4
:1009100002C08C91892B8C932FBF0895682F70E0B3
:10092000CB0182559F4FFC012491CB0186569F4FEE
:10093000FC0144916A577F4FFB019491992319F46C
:1009400020E030E03CC0222351F1233071F024300C
:1009500028F42130A1F0223011F514C02630B1F076
:100960002730C1F02430D9F404C0809180008F7703
:1009700003C0809180008F7D8093800010C084B57B
:100980008F7702C084B58F7D84BD09C08091B0008F
:100990008F7703C08091B0008F7D8093B000892F46
:1009A00090E0880F991F84589F4FFC01A591B49146
:1009B0008C9120E030E0842311F021E030E0C90187
:1009C0000895CF92DF92EF92FF920F931F93CF93F0
:1009D000DF937C016B018A01C0E0D0E00FC0D6013B
:1009E0006D916D01D701ED91FC910190F081E02DA9
:1009F000C7010995C80FD91F0150104001151105F5
:100A000071F7CE01DF91CF911F910F91FF90EF9081
:100A1000DF90CF900895DC01ED91FC910190F08181
:100A2000E02D09950895CF93DF93EC0161157105D1
:100A300019F420E030E00FC0DB010D900020E9F751
:100A40001197A61BB70BE881F9810280F381E02D95
:100A5000AD0109959C01C901DF91CF9108954F9295
:100A60005F927F928F929F92AF92BF92CF92DF92CE
:100A7000EF92FF920F931F93DF93CF93CDB7DEB723
:100A8000A1970FB6F894DEBF0FBECDBF2C01742E18
:100A9000CB01223008F42AE019A231E2C32ED12C76
:100AA000CC0EDD1E822E9924AA24BB24672D752F1F
:100AB000A50194010E94591079018A01C801B7016A
:100AC000A50194010E943A10472D461B0894C108C5
:100AD000D1084A3014F4405D01C0495CF6014083FE
:100AE000E114F1040105110521F07E2C5F2DC801F0
:100AF000DDCFC201B6010E941305A1960FB6F8948E
:100B0000DEBF0FBECDBFCF91DF911F910F91FF9040
:100B1000EF90DF90CF90BF90AF909F908F907F909D
:100B20005F904F900895DC012115310541F4ED915E
:100B3000FC910190F081E02D642F099508950E94A9
:100B40002F050895CF92DF92EF92FF920F931F939C
:100B5000CF93DF93EC016A017B012115310541F44C
:100B6000E881F9810190F081E02D642F09951FC083
:100B70002A303105D1F477FF17C0E881F98101905F
:100B8000F081E02D6DE209958C0144275527BA01CB
:100B90004C195D096E097F09CE012AE00E942F05DC
:100BA0009801280F391F04C02AE00E942F059C01DC
:100BB000C901DF91CF911F910F91FF90EF90DF90CE
:100BC000CF900895EF92FF920F931F937B019A01AC
:100BD0000027F7FC0095102FB801A7010E94A2057D
:100BE0001F910F91FF90EF9008950E9413050895B3
:100BF0007F928F929F92AF92BF92CF92DF92EF92AD
:100C0000FF920F931F93CF93DF934C017A018B01D7
:100C1000722ECB01BA01A80197010E9436108823D9
:100C200021F0C4016FE171E021C0C0E0D0E05701C4
:100C30006801E894D7F8C601B5012FEF3FEF4FE701
:100C40005FE70E943610882351F4C601B5012FEFEB
:100C50003FEF4FE75FE70E94800E181614F0C1E0E7
:100C6000D0E0219739F0C40163E271E00E941305DE
:100C7000EC0193C0C801B7012FEF3FEF4FE75FE4EE
:100C80000E94CF0F181654F0C801B7012FEF3FEFA5
:100C90004FE75FEC0E94800E882324F4C40167E2D2
:100CA00071E0E4CFC801B70120E030E040E050E05F
:100CB0000E94800E87FD03C0C0E0D0E00EC0D401CA
:100CC000ED91FC910190F081E02DC4016DE2099558
:100CD000EC0117FB109517F9109520E030E040E08B
:100CE0005FE3DD240BC0CA01B90120E030E040E23F
:100CF00051E40E94840E9B01AC01D394D71498F365
:100D0000C801B7010E941C0E5B016C010E94F10E2C
:100D10007B018C01C401B801A7012AE030E00E94E8
:100D20009305C80FD91F772039F0C4016BE271E039
:100D30000E941305C80FD91FC801B7010E941D0FDB
:100D40009B01AC01C601B5010E941B0E24C020E02E
:100D500030E040E251E40E94D30F7B018C010E94FD
:100D6000EC0E5B016C01CC24B7FCC094DC2CC401FC
:100D7000B601A5012AE030E00E94A205C80FD91FE4
:100D8000C601B5010E941F0F9B01AC01C801B7014C
:100D90000E941B0E7A947720D1F6CE01DF91CF917D
:100DA0001F910F91FF90EF90DF90CF90BF90AF9089
:100DB0009F908F907F9008950E94F8050895CF939B
:100DC000DF930E949E030E94BF01C0E0D0E00E941A
:100DD0004D012097E1F30E940000F9CF0F931F937C
:100DE0008C01FC01868160E00E943A0481E090E081
:100DF0000E949403F801868161E00E943A0481E038
:100E000090E00E949403F801868160E00E943A0419
:100E100084E690E00E9494031F910F910895CF9271
:100E2000DF92EF92FF920F931F93CF93DF93D82E11
:100E3000C92E282F392FC9018C01C0E0D0E0E62E41
:100E4000FF24F801878161E00E94FB03B7010C2EAB
:100E500002C0759567950A94E2F76170F801878181
:100E60000E943A0421960F5F1F4FC830D10549F701
:100E70008D2D9C2D0E94EE06DF91CF911F910F9139
:100E8000FF90EF90DF90CF900895CF92DF92EF9296
:100E9000FF920F931F93CF93DF93D82EC92E282F45
:100EA000392FC9018C01C0E0D0E0E62EFF24F80103
:100EB000878161E00E94FB03B7010C2E02C075958B
:100EC00067950A94E2F76170F80187810E943A04FD
:100ED00021960F5F1F4FC430D10549F78D2D9C2DF2
:100EE0000E94EE06DF91CF911F910F91FF90EF903E
:100EF000DF90CF9008951F93CF93DF93EC01162FCF
:100F00008C81642F0E943A048D818F3F19F060E03C
:100F10000E943A048F8584FF05C0CE01612F0E9494
:100F20000F070EC0612F70E084E0759567958A9574
:100F3000E1F7CE010E944507CE01612F0E944507CF
:100F4000DF91CF911F91089541E00E947B0781E0DE
:100F500090E0089540E00E947B070895FC016089BD
:100F6000862F8460808B6C60CF010E94AA07089551
:100F7000DF93CF93CDB7DEB728970FB6F894DEBFD7
:100F80000FBECDBF9C01FE013196A2E5B1E088E025
:100F90000D9001928150E1F7F9018389481710F013
:100FA000482F4150E42FF0E0EE0FFF1FEC0FFD1F24
:100FB0008181680F6068C9010E94AA0728960FB650
:100FC000F894DEBF0FBECDBFCF91DF91089561E0F1
:100FD0000E94AA0780ED97E00E9494030895CF93A2
:100FE000DF93EC01423018F08F8588608F874B8B40
:100FF0001C8A222329F0413019F48F8584608F8761
:1010000080E593EC0E9494038C8160E00E943A0496
:101010008E8160E00E943A048D818F3F19F060E07C
:101020000E943A046F8564FD1DC0CE0163E00E94FA
:10103000450784E991E10E949403CE0163E00E9498
:10104000450784E991E10E949403CE0163E00E9488
:10105000450786E990E00E949403CE0162E00E9479
:10106000450716C06062CE010E94AA0784E991E19B
:101070000E9494036F856062CE010E94AA0786E9F0
:1010800090E00E9494036F856062CE010E94AA07DF
:101090006F856062CE010E94AA0784E0888BCE0132
:1010A0000E94AE07CE010E94E70782E0898BCE0145
:1010B00066E00E94AA07DF91CF9108956F927F9218
:1010C0008F92AF92CF92EF920F931F93DF93CF93B4
:1010D000CDB7DEB73C01162F842FF301448325835F
:1010E0000683E782C086A18682869D8593879E853A
:1010F00094879F8595879889968761E00E94FB0376
:10110000F30185818F3F19F061E00E94FB03F30139
:10111000868161E00E94FB03112319F0F301178619
:1011200003C080E1F3018787C30160E141E020E073
:101130000E94EF07CF91DF911F910F91EF90CF9019
:10114000AF908F907F906F9008958F92AF92CF92D3
:10115000EF920F931F93CF93DF93DC01362F542F21
:10116000722F102FAE2C8C2C13961C921E9212975D
:101170008EE491E011969C938E9300D000D0EDB751
:10118000FEB73196CDB7DEB7198211821282138273
:10119000CD0161E0432F2FEF052FE72EC12E0E94D6
:1011A0005E080F900F900F900F90DF91CF911F91DD
:1011B0000F91EF90CF90AF908F9008950F931F9362
:1011C000CF93DF93EC018CE792E068E670E00E9439
:1011D000CE0A8CE792E060E00E94500B8CE792E030
:1011E0000E94930B882319F010922F0211C081E006
:1011F00080932F028CE792E068E670E047E050E0D1
:101200000E94A40B8CE792E00E94D80A079714F47E
:1012100080E065C08CE792E00E94E10A082F8F779A
:1012200082958F701AE0819FC0011124202F2F70AA
:10123000280F28838CE792E00E94E10A282F22954C
:101240002F70219F900111248F70820F89838CE76A
:1012500092E00E94E10A282F2F7322952F70219F80
:10126000900111248F70820F8A838CE792E00E9494
:10127000E10A282F22952F70219F900111248F7051
:10128000820F8B838CE792E00E94E10A282F22953F
:101290002F70219F900111248F70820F8C838CE717
:1012A00092E00E94E10A282F22952F70219F900141
:1012B00011248F70820F8D838CE792E00E94E10AE7
:1012C000282F2F70225E82958F70819FC00111247C
:1012D000280F2E83802F8095881F8827881FDF91F5
:1012E000CF911F910F9108958CE792E00E94A80B77
:1012F0000895FC018685882311F420E005C020E0D4
:101300008485882309F421E0822F08951F93CF93C9
:10131000DF93EC018D850E948E04182F8C85811738
:10132000E9F00E942D03288139814A815B81621B8B
:10133000730B840B950B2C813D814E815F8162176D
:1013400073078407950750F00E942D036883798303
:101350008A839B831C8721E030E002C020E030E0DC
:10136000C901DF91CF911F910895CF93DF93EC01D5
:101370000E948609892B09F588859985AA85BB85F0
:101380000097A105B10529F10E942D03288139811B
:101390004A815B81621B730B840B950B2885398511
:1013A0004A855B85621773078407950790F00E9452
:1013B0002D03688379838A839B83188619861A860E
:1013C0001B8681E08E8721E030E0C901DF91CF915B
:1013D00008951E8620E030E0F8CFFF920F931F9310
:1013E0008C01F62EFC0124833583468357831086B7
:1013F0001186128613860E942D03F8016083718383
:10140000828393838F2D0E948E04F8018487F58652
:101410001F910F91FF9008951F920F920FB60F9298
:1014200011242F933F934F935F936F937F938F93E9
:101430009F93AF93BF93EF93FF93E0913402F091AA
:1014400035020995FF91EF91BF91AF919F918F91D7
:101450007F916F915F914F913F912F910F900FBEB0
:101460000F901F901895FC01A3E0440F551F661FB5
:10147000771FAA95D1F7403080E0580781E06807D0
:1014800080E0780714F481E010C033E0759567952B
:10149000579547953A95D1F7403080E0580781E05D
:1014A000680780E078071CF482E0828339C023E07B
:1014B00075956795579547952A95D1F7403080E007
:1014C000580781E0680780E0780714F483E0EDCFE7
:1014D00092E075956795579547959A95D1F7403065
:1014E00080E0580781E0680780E0780714F484E022
:1014F000DCCF82E075956795579547958A95D1F72A
:10150000403080E0580781E0680780E0780714F4F5
:1015100085E0CBCF85E082834FEF5FEF60E070E046
:101520008FB78383F894518340835093870040930F
:10153000860083818FBF80918100887F80938100A6
:10154000809181009281892B80938100089510926F
:10155000800020E1209381000E94330A08950F93B8
:101560001F93CF93DF93EC018B0112161306140621
:10157000150624F4BA01A9010E94330A1D830C83C5
:1015800081E080936F00809181009A81892B809304
:101590008100DF91CF911F910F91089581E0809399
:1015A0007B02609358021092790210927A02089599
:1015B0002091570230E080915602281B3109C90161
:1015C00008954091560280915702481718F02FEF66
:1015D0003FEF0AC0E42FF0E0EA5CFD4F8081282F46
:1015E00030E04F5F40935602C9010895E0915602E2
:1015F00080915702E81718F0EFEFFFEF06C0F0E018
:10160000EA5CFD4F8081E82FF0E0CF010895089556
:1016100010927F0210927E0288EE93E0A0E0B0E08C
:101620008093800290938102A0938202B093830200
:101630008EE591E090937D0280937C020895CF9295
:10164000DF92EF92FF920F931F93CF93DF937C0172
:101650006B018A0180917B028823A1F0C0E0D0E079
:101660000DC0D701ED91FC91D601AC0FBD1F0190CB
:10167000F081E02DC7016C9109952196C017D10723
:1016800080F304C0CB01642F0E94510CC801DF918C
:10169000CF911F910F91FF90EF90DF90CF90089521
:1016A000DF93CF930F92CDB7DEB7FC0169838091B2
:1016B0007B028823C9F080917A02803238F081E081
:1016C00090E09383828320E030E015C0809179021E
:1016D000E82FF0E0E75AFD4F998190838F5F809368
:1016E000790280937A0205C0CE01019661E00E94E2
:1016F000510C21E030E0C9010F90CF91DF910895A6
:101700000F93062F8091580269E572E040917A02AA
:1017100021E00E94FC0B1092790210927A02109242
:101720007B020F91089561E00E94800B0895413281
:1017300008F040E2862F66E372E00E94B30B10923D
:10174000560280935702089521E00E94970B089556
:1017500010925602109257021092790210927A0259
:101760000E94FD0D0895382F413210F040E042C034
:10177000809188028823E1F791E09093880220937A
:101780008A028FEF8093F5021092B002415040938D
:10179000B1024F5F9093890280918902330F832BAE
:1017A0008093890280918B02813041F410928B02E8
:1017B000809189028093BB0085EC01C085EE809307
:1017C000BC00809188028130E1F38091B0028417DF
:1017D00010F44091B00220E030E00AC0FB01E20FBB
:1017E000F31FD901A057BD4F8C9180832F5F3F4FCE
:1017F0002417A0F3842F08950F931F93582F122FAF
:10180000413210F081E04AC0809188028823E1F7DC
:1018100082E08093880200938A028FEF8093F50222
:101820001092B0024093B102A0E9B2E0FB0102C005
:1018300081918D938E2F861B8417D0F3109289028D
:1018400080918902550F852B8093890280918B02AC
:10185000813041F410928B02809189028093BB0009
:1018600085EC01C085EE8093BC00112321F08091AE
:1018700088028230E1F38091F5028F3F11F480E01D
:101880000DC08091F502803211F482E007C0809192
:10189000F502803311F084E001C083E01F910F91C5
:1018A0000895482F613210F081E0089580918802F8
:1018B000843011F082E008956093D302A2EBB2E08D
:1018C000842F9C01F90102C081918D938E2F841B7E
:1018D0008617D0F380E008951F920F920FB60F92F3
:1018E00011242F933F934F935F936F937F938F9325
:1018F0009F93AF93BF93EF93FF938091B90090E0D4
:10190000887F90708036910509F4F2C08136910588
:10191000CCF58832910509F47BC089329105B4F485
:101920008031910509F46FC0813191053CF4009735
:1019300009F447C1089709F04FC165C08831910586
:1019400009F466C0809709F047C182C080349105D0
:1019500009F4A4C08134910544F48033910509F45D
:1019600082C0C89709F038C189C08035910509F453
:1019700089C08835910509F496C08834910509F02D
:101980002BC1AEC08839910509F413C1893991057D
:10199000ECF48837910509F4ABC0893791054CF414
:1019A0008836910509F4A4C08037910509F014C167
:1019B0009FC08838910509F4FCC08039910509F46D
:1019C0009DC08038910509F007C198C0803B910502
:1019D00009F4C6C0813B91054CF4803A910509F4A5
:1019E0009FC0883A910509F0F7C0BAC0803C9105C4
:1019F00009F4E3C0883C910509F4DFC0883B9105F8
:101A000009F0EAC0C2C0809189028093BB00CFC0B8
:101A10009091B0028091B102981768F49091B00251
:101A2000E92FF0E0E057FD4F80818093BB009F5F7E
:101A30009093B002BCC080918A02882309F44BC005
:101A400085ED8093BC008091BC0084FDFCCFC2C0BA
:101A500080E28093F50285ED8093BC008091BC000C
:101A600084FDFCCFB7C080E38093F50285ED8093C1
:101A7000BC008091BC0084FDFCCFACC088E38093A7
:101A8000F5029BC08091B0029091BB00E82FF0E07E
:101A9000E057FD4F90838F5F8093B0029091B0022A
:101AA0008091B10282C08091B0029091BB00E82F7A
:101AB000F0E0E057FD4F90838F5F8093B0028091FC
:101AC0008A02882341F085ED8093BC008091BC00A0
:101AD00084FDFCCF7FC081E080938B0284EA6EC0DE
:101AE00085ED8093BC008091BC0084FDFCCF72C06A
:101AF00083E0809388021092F40259C08091F4022E
:101B0000803208F056C08091F4029091BB00E82F1B
:101B1000F0E0EC52FD4F90838F5F8093F40247C05A
:101B20008091F402803230F4E091F402F0E0EC5263
:101B3000FD4F108285ED8093BC008091BC0084FD38
:101B4000FCCF109288026091F402E0918E02F09135
:101B50008F0284ED92E070E009951092F4022DC09E
:101B600084E0809388021092D2021092D302E09116
:101B70008C02F0918D0209958091D302882329F47B
:101B800081E08093D3021092B2029091D202E92FA9
:101B9000F0E0EE54FD4F80818093BB009F5F9093F7
:101BA000D2029091D2028091D302981710F485EC62
:101BB00001C085E88093BC000FC085EC8093BC0019
:101BC00009C01092F50285ED8093BC008091BC00A5
:101BD00084FDFCCF10928802FF91EF91BF91AF91ED
:101BE0009F918F917F916F915F914F913F912F9135
:101BF0000F900FBE0F901F9018951092880281E0F1
:101C000080938A0210928B0282E161E00E943A0482
:101C100083E161E00E943A04E9EBF0E080818E7F8D
:101C2000808380818D7F808388E48093B80085E401
:101C30008093BC0008955058BB27AA270ED075C1C9
:101C400066D130F06BD120F031F49F3F11F41EF4D7
:101C50005BC10EF4E095E7FB51C1E92F77D180F32A
:101C6000BA17620773078407950718F071F49EF599
:101C70008FC10EF4E0950B2EBA2FA02D0B01B901E8
:101C800090010C01CA01A0011124FF27591B99F0F2
:101C9000593F50F4503E68F11A16F040A22F232FFE
:101CA000342F4427585FF3CF469537952795A7954E
:101CB000F0405395C9F77EF41F16BA0B620B730BF5
:101CC000840BBAF09150A1F0FF0FBB1F661F771F66
:101CD000881FC2F70EC0BA0F621F731F841F48F41B
:101CE000879577956795B795F7959E3F08F0B3CFA1
:101CF0009395880F08F09927EE0F9795879508958B
:101D0000D9D008F481E008950CD00FC107D140F07C
:101D1000FED030F021F45F3F19F0F0C0511139C10D
:101D2000F3C014D198F39923C9F35523B1F3951B4C
:101D3000550BBB27AA2762177307840738F09F5FEC
:101D40005F4F220F331F441FAA1FA9F333D00E2E5B
:101D50003AF0E0E830D091505040E695001CCAF7C8
:101D600029D0FE2F27D0660F771F881FBB1F26178D
:101D700037074807AB07B0E809F0BB0B802DBF0160
:101D8000FF2793585F4F2AF09E3F510568F0B6C079
:101D900000C15F3FECF3983EDCF38695779567953D
:101DA000B795F7959F5FC9F7880F911D9695879511
:101DB00097F90895E1E0660F771F881FBB1F621730
:101DC00073078407BA0720F0621B730B840BBA0BEE
:101DD000EE1F88F7E095089504D06894B111D9C03A
:101DE0000895BCD088F09F5790F0B92F9927B7512C
:101DF000A0F0D1F0660F771F881F991F1AF0BA95CF
:101E0000C9F712C0B13081F0C3D0B1E00895C0C0AD
:101E1000672F782F8827B85F39F0B93FCCF38695C4
:101E200077956795B395D9F73EF490958095709521
:101E300061957F4F8F4F9F4F0895E89409C097FB9E
:101E40003EF490958095709561957F4F8F4F9F4F91
:101E50009923A9F0F92F96E9BB279395F6958795D5
:101E600077956795B795F111F8CFFAF4BB0F11F498
:101E700060FF1BC06F5F7F4F8F4F9F4F16C088233F
:101E800011F096E911C0772321F09EE8872F762F75
:101E900005C0662371F096E8862F70E060E02AF0B6
:101EA0009A95660F771F881FDAF7880F96958795A2
:101EB00097F90895990F0008550FAA0BE0E8FEEF77
:101EC00016161706E807F907C0F012161306E407FE
:101ED000F50798F0621B730B840B950B39F40A26F7
:101EE00061F0232B242B252B21F408950A2609F4D5
:101EF000A140A6958FEF811D811D089597F99F67D9
:101F000080E870E060E008959FEF80EC0895002481
:101F10000A941616170618060906089500240A944E
:101F200012161306140605060895092E0394000CD4
:101F300011F4882352F0BB0F40F4BF2B11F460FF63
:101F400004C06F5F7F4F8F4F9F4F089557FD90588C
:101F5000440F551F59F05F3F71F04795880F97FB6D
:101F6000991F61F09F3F79F0879508951216130627
:101F70001406551FF2CF4695F1DF08C01616170656
:101F80001806991FF1CF869571056105089408958B
:101F9000E894BB2766277727CB0197F908958ADF56
:101FA00008F48FEF08950BD0C0CFB1DF28F0B6DF73
:101FB00018F0952309F0A2CFA7CF1124EACFC6DFEE
:101FC000A0F3959FD1F3950F50E0551F629FF0014C
:101FD000729FBB27F00DB11D639FAA27F00DB11DA5
:101FE000AA1F649F6627B00DA11D661F829F22272E
:101FF000B00DA11D621F739FB00DA11D621F839FB5
:10200000A00D611D221F749F3327A00D611D231F8A
:10201000849F600D211D822F762F6A2F11249F57D8
:1020200050408AF0E1F088234AF0EE0FFF1FBB1FFB
:10203000661F771F881F91505040A9F79E3F51059A
:1020400070F05CCFA6CF5F3FECF3983EDCF3869553
:1020500077956795B795F795E7959F5FC1F7FE2B45
:10206000880F911D9695879597F9089523DF880B22
:10207000990B0895629FD001739FF001829FE00D3C
:10208000F11D649FE00DF11D929FF00D839FF00DF7
:10209000749FF00D659FF00D9927729FB00DE11DA3
:1020A000F91F639FB00DE11DF91FBD01CF01112480
:1020B0000895A1E21A2EAA1BBB1BFD010DC0AA1F89
:1020C000BB1FEE1FFF1FA217B307E407F50720F0A1
:1020D000A21BB30BE40BF50B661F771F881F991F1C
:1020E0001A9469F760957095809590959B01AC0165
:1020F000BD01CF010895EE0FFF1F0590F491E02D73
:062100000994F894FFCFE2
:10210600543A00433A0020003A005375004D6F00E0
:102116005475005765005468004672005361006E9E
:10212600616E00696E66006F7666002E0006000717
:102136000008000000A8411E000A010D011001134D
:1021460001160119011C0101010100000000A4078C
:10215600E104000040001400540000000000500B91
:0A2166001F0BD80AE10AF60A070B66
:00000001FF
